{
  "contractName": "CoinFlip",
  "abi": [
    {
      "inputs": [
        {
          "internalType": "uint64",
          "name": "_subscriptionId",
          "type": "uint64"
        }
      ],
      "stateMutability": "payable",
      "type": "constructor"
    },
    {
      "inputs": [
        {
          "internalType": "address",
          "name": "have",
          "type": "address"
        },
        {
          "internalType": "address",
          "name": "want",
          "type": "address"
        }
      ],
      "name": "OnlyCoordinatorCanFulfill",
      "type": "error"
    },
    {
      "anonymous": false,
      "inputs": [
        {
          "indexed": true,
          "internalType": "address",
          "name": "player",
          "type": "address"
        },
        {
          "indexed": false,
          "internalType": "bool",
          "name": "victory",
          "type": "bool"
        },
        {
          "indexed": false,
          "internalType": "uint256",
          "name": "amount",
          "type": "uint256"
        }
      ],
      "name": "BetResult",
      "type": "event"
    },
    {
      "anonymous": false,
      "inputs": [
        {
          "indexed": false,
          "internalType": "address",
          "name": "user",
          "type": "address"
        },
        {
          "indexed": false,
          "internalType": "uint256",
          "name": "depositAmount",
          "type": "uint256"
        },
        {
          "indexed": false,
          "internalType": "uint256",
          "name": "newBalance",
          "type": "uint256"
        }
      ],
      "name": "DepositToContract",
      "type": "event"
    },
    {
      "anonymous": false,
      "inputs": [
        {
          "indexed": false,
          "internalType": "uint256",
          "name": "requestId",
          "type": "uint256"
        },
        {
          "indexed": false,
          "internalType": "uint256",
          "name": "randomNumber",
          "type": "uint256"
        }
      ],
      "name": "GeneratedRandomNumber",
      "type": "event"
    },
    {
      "anonymous": false,
      "inputs": [
        {
          "indexed": true,
          "internalType": "address",
          "name": "player",
          "type": "address"
        },
        {
          "indexed": false,
          "internalType": "uint256",
          "name": "requestId",
          "type": "uint256"
        }
      ],
      "name": "NewIdRequest",
      "type": "event"
    },
    {
      "anonymous": false,
      "inputs": [
        {
          "indexed": true,
          "internalType": "address",
          "name": "previousOwner",
          "type": "address"
        },
        {
          "indexed": true,
          "internalType": "address",
          "name": "newOwner",
          "type": "address"
        }
      ],
      "name": "OwnershipTransferred",
      "type": "event"
    },
    {
      "anonymous": false,
      "inputs": [
        {
          "indexed": false,
          "internalType": "address",
          "name": "player",
          "type": "address"
        },
        {
          "indexed": false,
          "internalType": "uint256",
          "name": "amount",
          "type": "uint256"
        }
      ],
      "name": "Withdrawal",
      "type": "event"
    },
    {
      "inputs": [],
      "name": "owner",
      "outputs": [
        {
          "internalType": "address",
          "name": "",
          "type": "address"
        }
      ],
      "stateMutability": "view",
      "type": "function"
    },
    {
      "inputs": [
        {
          "internalType": "address",
          "name": "",
          "type": "address"
        }
      ],
      "name": "playersByAddress",
      "outputs": [
        {
          "internalType": "uint256",
          "name": "balance",
          "type": "uint256"
        },
        {
          "internalType": "uint256",
          "name": "betAmount",
          "type": "uint256"
        },
        {
          "internalType": "uint256",
          "name": "betChoice",
          "type": "uint256"
        },
        {
          "internalType": "address",
          "name": "playerAddress",
          "type": "address"
        },
        {
          "internalType": "bool",
          "name": "betOngoing",
          "type": "bool"
        }
      ],
      "stateMutability": "view",
      "type": "function"
    },
    {
      "inputs": [
        {
          "internalType": "uint256",
          "name": "requestId",
          "type": "uint256"
        },
        {
          "internalType": "uint256[]",
          "name": "randomWords",
          "type": "uint256[]"
        }
      ],
      "name": "rawFulfillRandomWords",
      "outputs": [],
      "stateMutability": "nonpayable",
      "type": "function"
    },
    {
      "inputs": [],
      "name": "renounceOwnership",
      "outputs": [],
      "stateMutability": "nonpayable",
      "type": "function"
    },
    {
      "inputs": [],
      "name": "requestId",
      "outputs": [
        {
          "internalType": "uint256",
          "name": "",
          "type": "uint256"
        }
      ],
      "stateMutability": "view",
      "type": "function"
    },
    {
      "inputs": [
        {
          "internalType": "uint256",
          "name": "",
          "type": "uint256"
        }
      ],
      "name": "temps",
      "outputs": [
        {
          "internalType": "uint256",
          "name": "id",
          "type": "uint256"
        },
        {
          "internalType": "uint256",
          "name": "result",
          "type": "uint256"
        },
        {
          "internalType": "address",
          "name": "playerAddress",
          "type": "address"
        }
      ],
      "stateMutability": "view",
      "type": "function"
    },
    {
      "inputs": [
        {
          "internalType": "address",
          "name": "newOwner",
          "type": "address"
        }
      ],
      "name": "transferOwnership",
      "outputs": [],
      "stateMutability": "nonpayable",
      "type": "function"
    },
    {
      "inputs": [
        {
          "internalType": "uint256",
          "name": "_betChoice",
          "type": "uint256"
        }
      ],
      "name": "bet",
      "outputs": [],
      "stateMutability": "payable",
      "type": "function"
    },
    {
      "inputs": [],
      "name": "requestRandomWords",
      "outputs": [
        {
          "internalType": "uint256",
          "name": "",
          "type": "uint256"
        }
      ],
      "stateMutability": "nonpayable",
      "type": "function"
    },
    {
      "inputs": [],
      "name": "deposit",
      "outputs": [],
      "stateMutability": "payable",
      "type": "function"
    },
    {
      "inputs": [],
      "name": "withdrawPlayerBalance",
      "outputs": [],
      "stateMutability": "nonpayable",
      "type": "function"
    },
    {
      "inputs": [],
      "name": "getPlayerBalance",
      "outputs": [
        {
          "internalType": "uint256",
          "name": "",
          "type": "uint256"
        }
      ],
      "stateMutability": "view",
      "type": "function"
    },
    {
      "inputs": [],
      "name": "getContractBalance",
      "outputs": [
        {
          "internalType": "uint256",
          "name": "",
          "type": "uint256"
        }
      ],
      "stateMutability": "view",
      "type": "function"
    },
    {
      "inputs": [],
      "name": "withdrawContractBalance",
      "outputs": [],
      "stateMutability": "nonpayable",
      "type": "function"
    },
    {
      "inputs": [
        {
          "internalType": "address",
          "name": "consumerAddress",
          "type": "address"
        }
      ],
      "name": "addConsumer",
      "outputs": [],
      "stateMutability": "nonpayable",
      "type": "function"
    },
    {
      "inputs": [
        {
          "internalType": "address",
          "name": "consumerAddress",
          "type": "address"
        }
      ],
      "name": "removeConsumer",
      "outputs": [],
      "stateMutability": "nonpayable",
      "type": "function"
    },
    {
      "inputs": [
        {
          "internalType": "address",
          "name": "receivingWallet",
          "type": "address"
        }
      ],
      "name": "cancelSubscription",
      "outputs": [],
      "stateMutability": "nonpayable",
      "type": "function"
    }
  ],
  "bytecode": "0x60a060405260405161151d38038061151d8339810160408190526100229161017e565b736168499c0cffcacd319c818142124b7a15e857ab6100403361012e565b60601b6001600160601b03191660805267016345785d8a0000348111156100ad5760405162461bcd60e51b815260206004820152601860248201527f436f6e7472616374206e6565647320736f6d65204554482e0000000000000000604482015260640160405180910390fd5b600180546001600160a01b031916736168499c0cffcacd319c818142124b7a15e857ab179055600280546001600160401b038416600160a01b026001600160e01b0319909116177301be23585060835e02b77ef475b0cc51aa1e0709179055600380543491906000906101219084906101ae565b909155506101d492505050565b600080546001600160a01b038381166001600160a01b0319831681178455604051919092169283917f8be0079c531659141344cd1fd0a4f28419497f9722a3daafe3b4186f6b6457e09190a35050565b60006020828403121561019057600080fd5b81516001600160401b03811681146101a757600080fd5b9392505050565b600082198211156101cf57634e487b7160e01b600052601160045260246000fd5b500190565b60805160601c6113246101f96000396000818161047201526104b401526113246000f3fe6080604052600436106100fd5760003560e01c80637365870b11610095578063bfab3db911610064578063bfab3db914610327578063d0e30db01461033c578063d325101a14610344578063e0c8628914610359578063f2fde38b1461036e57600080fd5b80637365870b14610242578063772a9afc146102555780638da5cb5b146102df57806393d81d581461030757600080fd5b80631fe543e3116100d15780631fe543e31461018f5780636f9fb98a146101af578063715018a6146101c4578063718c49d5146101d957600080fd5b80626d6cae146101025780630b01517c1461012b5780630e27e3df1461014d578063112940f91461016f575b600080fd5b34801561010e57600080fd5b5061011860045481565b6040519081526020015b60405180910390f35b34801561013757600080fd5b5033600090815260056020526040902054610118565b34801561015957600080fd5b5061016d6101683660046110cb565b61038e565b005b34801561017b57600080fd5b5061016d61018a3660046110cb565b610413565b34801561019b57600080fd5b5061016d6101aa36600461114f565b610467565b3480156101bb57600080fd5b50600354610118565b3480156101d057600080fd5b5061016d6104f4565b3480156101e557600080fd5b5061021e6101f436600461111d565b6006602052600090815260409020805460018201546002909201549091906001600160a01b031683565b6040805193845260208401929092526001600160a01b031690820152606001610122565b61016d61025036600461111d565b610508565b34801561026157600080fd5b506102ac6102703660046110cb565b6005602052600090815260409020805460018201546002830154600390930154919290916001600160a01b03811690600160a01b900460ff1685565b604080519586526020860194909452928401919091526001600160a01b031660608301521515608082015260a001610122565b3480156102eb57600080fd5b506000546040516001600160a01b039091168152602001610122565b34801561031357600080fd5b5061016d6103223660046110cb565b610793565b34801561033357600080fd5b5061016d61082b565b61016d610a0c565b34801561035057600080fd5b5061016d610a74565b34801561036557600080fd5b50610118610c4b565b34801561037a57600080fd5b5061016d6103893660046110cb565b610d23565b610396610d99565b600154600254604051639f87fad760e01b8152600160a01b90910467ffffffffffffffff1660048201526001600160a01b03838116602483015290911690639f87fad7906044015b600060405180830381600087803b1580156103f857600080fd5b505af115801561040c573d6000803e3d6000fd5b5050505050565b61041b610d99565b600154600254604051631cd0704360e21b8152600160a01b90910467ffffffffffffffff1660048201526001600160a01b03838116602483015290911690637341c10c906044016103de565b336001600160a01b037f000000000000000000000000000000000000000000000000000000000000000016146104e65760405163073e64fd60e21b81523360048201526001600160a01b037f00000000000000000000000000000000000000000000000000000000000000001660248201526044015b60405180910390fd5b6104f08282610df3565b5050565b6104fc610d99565b6105066000610e85565b565b66038d7ea4c680003410156105755760405162461bcd60e51b815260206004820152602d60248201527f496e737566666973616e7420616d6f756e742c20706c6561736520696e63726560448201526c61736520796f7572206265742160981b60648201526084016104dd565b600261058060035490565b61058a9190611238565b3411156105f25760405162461bcd60e51b815260206004820152603060248201527f43616e277420626574206d6f7265207468616e2068616c662074686520636f6e60448201526f747261637427732062616c616e63652160801b60648201526084016104dd565b33600090815260056020526040902060030154600160a01b900460ff161561066a5760405162461bcd60e51b815260206004820152602560248201527f42657420616c7265616479206f6e676f696e6720776974682074686973206164604482015264647265737360d81b60648201526084016104dd565b8015806106775750806001145b6106bb5760405162461bcd60e51b81526020600482015260156024820152744d757374206265206569746865722030206f72203160581b60448201526064016104dd565b336000818152600560205260408120600380820180546002840187905560ff60a01b199095166001600160a81b031990951694909417600160a01b17909355346001909101819055825490929190610714908490611220565b909155506107229050610c4b565b600481815560009182526006602052604080832060020180546001600160a01b031916339081179091559154808452928190208390555190917edb1ec50be94c0b0a88f364dd237545bff0f79c5e41688d207c80e0389bfe439161078891815260200190565b60405180910390a250565b61079b610d99565b600154600254604051630d7ae1d360e41b8152600160a01b90910467ffffffffffffffff1660048201526001600160a01b0383811660248301529091169063d7ae1d3090604401600060405180830381600087803b1580156107fc57600080fd5b505af1158015610810573d6000803e3d6000fd5b50506002805467ffffffffffffffff60a01b19169055505050565b610833610d99565b61083c33610ed5565b506002546040516370a0823160e01b81523060048201526000916001600160a01b0316906370a082319060240160206040518083038186803b15801561088157600080fd5b505afa158015610895573d6000803e3d6000fd5b505050506040513d601f19601f820116820180604052508101906108b99190611136565b1115610506576002546040516370a0823160e01b81523060048201526000916001600160a01b03169063a9059cbb90339083906370a082319060240160206040518083038186803b15801561090d57600080fd5b505afa158015610921573d6000803e3d6000fd5b505050506040513d601f19601f820116820180604052508101906109459190611136565b6040516001600160e01b031960e085901b1681526001600160a01b0390921660048301526024820152604401602060405180830381600087803b15801561098b57600080fd5b505af115801561099f573d6000803e3d6000fd5b505050506040513d601f19601f820116820180604052508101906109c391906110fb565b905080610a095760405162461bcd60e51b8152602060048201526014602482015273131a5b9ac81dda5d1a191c985dc819985a5b195960621b60448201526064016104dd565b50565b60003411610a1957600080fd5b3460036000828254610a2b9190611220565b90915550506003546040805133815234602082015280820192909252517f719a678c6170368d3e08a7171825b667d9f9b32520826d4fab3af939fef66e429181900360600190a1565b33610ac15760405162461bcd60e51b815260206004820152601b60248201527f54686973206164647265737320646f65736e27742065786973742e000000000060448201526064016104dd565b33600090815260056020526040902054610b295760405162461bcd60e51b8152602060048201526024808201527f596f7520646f6e2774206861766520616e792066756e6420746f2077697468646044820152633930bb9760e11b60648201526084016104dd565b33600090815260056020526040902060030154600160a01b900460ff1615610b9f5760405162461bcd60e51b815260206004820152602360248201527f746869732061646472657373207374696c6c2068617320616e206f70656e206260448201526232ba1760e91b60648201526084016104dd565b3360008181526005602052604080822054905190929183156108fc02918491818181858888f19350505050158015610bdb573d6000803e3d6000fd5b50336000818152600560209081526040808320838155600181018490556002810193909355600390920180546001600160a81b0319169055815192835282018390527f7fcf532c15f0a6db0bd6d0e038bea71d30d808c7d98cb3bf7268a95bf5081b65910160405180910390a150565b600180546002546040516305d3b1d360e41b81527fd89b2bf150e3b9e13446986e571fb9cab24b13cea0a43ea20a6049a85cc807cc6004820152600160a01b90910467ffffffffffffffff16602482015260036044820152620186a0606482015260848101929092526000916001600160a01b0390911690635d3b1d309060a401602060405180830381600087803b158015610ce657600080fd5b505af1158015610cfa573d6000803e3d6000fd5b505050506040513d601f19601f82011682018060405250810190610d1e9190611136565b905090565b610d2b610d99565b6001600160a01b038116610d905760405162461bcd60e51b815260206004820152602660248201527f4f776e61626c653a206e6577206f776e657220697320746865207a65726f206160448201526564647265737360d01b60648201526084016104dd565b610a0981610e85565b6000546001600160a01b031633146105065760405162461bcd60e51b815260206004820181905260248201527f4f776e61626c653a2063616c6c6572206973206e6f7420746865206f776e657260448201526064016104dd565b6000600282600081518110610e0a57610e0a6112c2565b6020026020010151610e1c9190611282565b60048054600090815260066020526040902060010182905554909150610e43908290610f66565b5060045460408051918252602082018390527f950c41a5e739a3e2fc2411de52a5b8ae053a697c52eab361a5e90e095fda638e910160405180910390a1505050565b600080546001600160a01b038381166001600160a01b0319831681178455604051919092169283917f8be0079c531659141344cd1fd0a4f28419497f9722a3daafe3b4186f6b6457e09190a35050565b600060035460001415610f215760405162461bcd60e51b81526020600482015260146024820152734e6f2066756e647320746f20776974686472617760601b60448201526064016104dd565b6000600381905560405147916001600160a01b0385169183156108fc0291849190818181858888f19350505050158015610f5f573d6000803e3d6000fd5b5092915050565b60008181526006602090815260408083206002908101546001600160a01b03168085526005909352908320015482908190861415611025576001600160a01b0383166000908152600560205260409020600190810154909250610fca90600261124c565b6001600160a01b038416600090815260056020526040902054909150610ff1908290611220565b6001600160a01b0384166000908152600560205260408120919091556003805483929061101f90849061126b565b90915550505b604080518315158152602081018390526001600160a01b038516917f883f4d0c1f1f46295aca1500eb9887530d302925a814aa0a107fc8ca8b77971d910160405180910390a2506001600160a01b0391909116600090815260056020908152604080832060018082018590556003909101805460ff60a01b191690559583526006909152812081815593840155600290920180546001600160a01b031916905550919050565b6000602082840312156110dd57600080fd5b81356001600160a01b03811681146110f457600080fd5b9392505050565b60006020828403121561110d57600080fd5b815180151581146110f457600080fd5b60006020828403121561112f57600080fd5b5035919050565b60006020828403121561114857600080fd5b5051919050565b6000806040838503121561116257600080fd5b8235915060208084013567ffffffffffffffff8082111561118257600080fd5b818601915086601f83011261119657600080fd5b8135818111156111a8576111a86112d8565b8060051b604051601f19603f830116810181811085821117156111cd576111cd6112d8565b604052828152858101935084860182860187018b10156111ec57600080fd5b600095505b8386101561120f5780358552600195909501949386019386016111f1565b508096505050505050509250929050565b6000821982111561123357611233611296565b500190565b600082611247576112476112ac565b500490565b600081600019048311821515161561126657611266611296565b500290565b60008282101561127d5761127d611296565b500390565b600082611291576112916112ac565b500690565b634e487b7160e01b600052601160045260246000fd5b634e487b7160e01b600052601260045260246000fd5b634e487b7160e01b600052603260045260246000fd5b634e487b7160e01b600052604160045260246000fdfea2646970667358221220754685f10da0227ca48bac56905c667ab312c1f58db6b0ad634b0ac80c3d341b64736f6c63430008070033",
  "immutableReferences": {
    "10": [
      {
        "length": 32,
        "start": 1138
      },
      {
        "length": 32,
        "start": 1204
      }
    ]
  },
  "source": "// SPDX-License-Identifier: MIT\r\npragma solidity 0.8.7;\r\n\r\nimport \"./Ownable.sol\";\r\nimport \"@chainlink/contracts/src/v0.8/interfaces/LinkTokenInterface.sol\";\r\nimport \"@chainlink/contracts/src/v0.8/interfaces/VRFCoordinatorV2Interface.sol\";\r\nimport \"@chainlink/contracts/src/v0.8/VRFConsumerBaseV2.sol\";\r\n\r\ncontract CoinFlip is Ownable, VRFConsumerBaseV2 {\r\n    VRFCoordinatorV2Interface COORDINATOR;\r\n    LinkTokenInterface LINKTOKEN;\r\n\r\n    /* Storage:\r\n     ***********/\r\n\r\n    address constant vrfCoordinator = 0x6168499c0cFfCaCD319c818142124B7A15E857ab;\r\n    address constant link_token_contract = 0x01BE23585060835E02B77ef475b0Cc51aA1e0709;\r\n\r\n    bytes32 constant keyHash = 0xd89b2bf150e3b9e13446986e571fb9cab24b13cea0a43ea20a6049a85cc807cc;\r\n    uint16 constant requestConfirmations = 3;\r\n    uint32 constant callbackGasLimit = 100000;\r\n    uint32 constant numWords = 1;\r\n    uint64 subscriptionId;\r\n    uint256 private contractBalance;\r\n\r\n    //uint256[] public randomWords;\r\n    uint256 public requestId;\r\n\r\n    struct Temp {\r\n        uint256 id;\r\n        uint256 result;\r\n        address playerAddress;\r\n    }\r\n\r\n    struct PlayerByAddress {\r\n        uint256 balance;\r\n        uint256 betAmount;\r\n        uint256 betChoice;\r\n        address playerAddress;\r\n        bool betOngoing;\r\n    }\r\n\r\n    mapping(address => PlayerByAddress) public playersByAddress; //to check who is the player\r\n    mapping(uint256 => Temp) public temps; //to check who is the sender of a pending bet by Id\r\n\r\n    /* Events:\r\n     *********/\r\n\r\n    event DepositToContract(address user, uint256 depositAmount, uint256 newBalance);\r\n    event Withdrawal(address player, uint256 amount);\r\n    event NewIdRequest(address indexed player, uint256 requestId);\r\n    event GeneratedRandomNumber(uint256 requestId, uint256 randomNumber);\r\n    event BetResult(address indexed player, bool victory, uint256 amount);\r\n\r\n    /* Constructor:\r\n     **************/\r\n\r\n    constructor(uint64 _subscriptionId) payable initCosts(0.1 ether) VRFConsumerBaseV2(vrfCoordinator) {\r\n        COORDINATOR = VRFCoordinatorV2Interface(vrfCoordinator);\r\n        LINKTOKEN = LinkTokenInterface(link_token_contract);\r\n        subscriptionId = _subscriptionId;\r\n        contractBalance += msg.value;\r\n    }\r\n\r\n    /* Modifiers:\r\n     ************/\r\n\r\n    modifier initCosts(uint256 initCost) {\r\n        require(msg.value >= initCost, \"Contract needs some ETH.\");\r\n        _;\r\n    }\r\n\r\n    modifier betConditions() {\r\n        require(msg.value >= 0.001 ether, \"Insuffisant amount, please increase your bet!\");\r\n        require(msg.value <= getContractBalance() / 2, \"Can't bet more than half the contract's balance!\");\r\n        require(!playersByAddress[msg.sender].betOngoing, \"Bet already ongoing with this address\");\r\n        _;\r\n    }\r\n\r\n    /* Functions:\r\n     *************/\r\n\r\n    function bet(uint256 _betChoice) public payable betConditions {\r\n        require(_betChoice == 0 || _betChoice == 1, \"Must be either 0 or 1\");\r\n\r\n        playersByAddress[msg.sender].playerAddress = msg.sender;\r\n        playersByAddress[msg.sender].betChoice = _betChoice;\r\n        playersByAddress[msg.sender].betOngoing = true;\r\n        playersByAddress[msg.sender].betAmount = msg.value;\r\n        contractBalance += playersByAddress[msg.sender].betAmount;\r\n\r\n        requestId = requestRandomWords();\r\n        temps[requestId].playerAddress = msg.sender;\r\n        temps[requestId].id = requestId;\r\n\r\n        emit NewIdRequest(msg.sender, requestId);\r\n    }\r\n\r\n    // Assumes the subscription is funded sufficiently.\r\n    function requestRandomWords() public returns (uint256) {\r\n        return\r\n            COORDINATOR.requestRandomWords(keyHash, subscriptionId, requestConfirmations, callbackGasLimit, numWords);\r\n    }\r\n\r\n    function fulfillRandomWords(uint256, uint256[] memory _randomWords) internal override {\r\n        uint256 randomResult = _randomWords[0] % 2;\r\n        temps[requestId].result = randomResult;\r\n\r\n        checkResult(randomResult, requestId);\r\n        emit GeneratedRandomNumber(requestId, randomResult);\r\n    }\r\n\r\n    function checkResult(uint256 _randomResult, uint256 _requestId) private returns (bool) {\r\n        address player = temps[_requestId].playerAddress;\r\n        bool win = false;\r\n        uint256 amountWon = 0;\r\n\r\n        if (playersByAddress[player].betChoice == _randomResult) {\r\n            win = true;\r\n            amountWon = playersByAddress[player].betAmount * 2;\r\n            playersByAddress[player].balance = playersByAddress[player].balance + amountWon;\r\n            contractBalance -= amountWon;\r\n        }\r\n\r\n        emit BetResult(player, win, amountWon);\r\n\r\n        playersByAddress[player].betAmount = 0;\r\n        playersByAddress[player].betOngoing = false;\r\n\r\n        delete (temps[_requestId]);\r\n        return win;\r\n    }\r\n\r\n    function deposit() external payable {\r\n        require(msg.value > 0);\r\n        contractBalance += msg.value;\r\n        emit DepositToContract(msg.sender, msg.value, contractBalance);\r\n    }\r\n\r\n    function withdrawPlayerBalance() external {\r\n        require(msg.sender != address(0), \"This address doesn't exist.\");\r\n        require(playersByAddress[msg.sender].balance > 0, \"You don't have any fund to withdraw.\");\r\n        require(!playersByAddress[msg.sender].betOngoing, \"this address still has an open bet.\");\r\n\r\n        uint256 amount = playersByAddress[msg.sender].balance;\r\n        payable(msg.sender).transfer(amount);\r\n        delete (playersByAddress[msg.sender]);\r\n\r\n        emit Withdrawal(msg.sender, amount);\r\n    }\r\n\r\n    /* View functions:\r\n     *******************/\r\n\r\n    function getPlayerBalance() external view returns (uint256) {\r\n        return playersByAddress[msg.sender].balance;\r\n    }\r\n\r\n    function getContractBalance() public view returns (uint256) {\r\n        return contractBalance;\r\n    }\r\n\r\n    /* PRIVATE :\r\n     ***********/\r\n\r\n    function withdrawContractBalance() external onlyOwner {\r\n        _payout(payable(msg.sender));\r\n        if (LINKTOKEN.balanceOf(address(this)) > 0) {\r\n            bool isSuccess = LINKTOKEN.transfer(msg.sender, LINKTOKEN.balanceOf(address(this)));\r\n            require(isSuccess, \"Link withdraw failed\");\r\n        }\r\n    }\r\n\r\n    function addConsumer(address consumerAddress) external onlyOwner {\r\n        COORDINATOR.addConsumer(subscriptionId, consumerAddress);\r\n    }\r\n\r\n    function removeConsumer(address consumerAddress) external onlyOwner {\r\n        // Remove a consumer contract from the subscription.\r\n        COORDINATOR.removeConsumer(subscriptionId, consumerAddress);\r\n    }\r\n\r\n    function cancelSubscription(address receivingWallet) external onlyOwner {\r\n        // Cancel the subscription and send the remaining LINK to a wallet address.\r\n        COORDINATOR.cancelSubscription(subscriptionId, receivingWallet);\r\n        subscriptionId = 0;\r\n    }\r\n\r\n    function _payout(address payable to) private returns (uint256) {\r\n        require(contractBalance != 0, \"No funds to withdraw\");\r\n\r\n        uint256 toTransfer = address(this).balance;\r\n        contractBalance = 0;\r\n        to.transfer(toTransfer);\r\n        return toTransfer;\r\n    }\r\n}\r\n",
  "sourcePath": "F:\\Perso\\CoinFlip\\blockchain\\contracts\\CoinFlip.sol",
  "compiler": {
    "name": "solc",
    "version": "0.8.7+commit.e28d00a7.Emscripten.clang"
  },
  "schemaVersion": "3.4.3",
  "updatedAt": "2022-07-04T07:52:59.016Z",
  "devdoc": {
    "kind": "dev",
    "methods": {
      "owner()": {
        "details": "Returns the address of the current owner."
      },
      "renounceOwnership()": {
        "details": "Leaves the contract without owner. It will not be possible to call `onlyOwner` functions anymore. Can only be called by the current owner. NOTE: Renouncing ownership will leave the contract without an owner, thereby removing any functionality that is only available to the owner."
      },
      "transferOwnership(address)": {
        "details": "Transfers ownership of the contract to a new account (`newOwner`). Can only be called by the current owner."
      }
    },
    "version": 1
  },
  "userdoc": {
    "kind": "user",
    "methods": {},
    "version": 1
  }
}